:100000000C944E000C946D000C946D000C946D00DB
:100010000C946D000C946D000C946D000C946D00AC
:100020000C946D000C946D000C946D000C946D009C
:100030000C946D000C9447010C946D000C946D00B1
:100040000C946D000C946D000C946D000C946D007C
:100050000C946D000C946D000C946D000C946D006C
:100060000C946D000C946D000C946D000C946D005C
:100070000C946D000C946D000C946D000C946D004C
:100080000C946D000C946D000C946D005E02720275
:1000900086029A02BD02A702B002B90211241FBE55
:1000A000CFEFD0E4DEBFCDBF11E0A0E0B1E0E8E3E8
:1000B000F6E000E00BBF02C007900D92AA33B10733
:1000C000D9F711E0AAE3B1E001C01D92A834B1074D
:1000D000E1F70E94C6020C941A030C94000040E061
:1000E00050E00CC000002F5F3F4F02C020E030E026
:1000F000273063E03607B4F34F5F5F4F4817590767
:10010000ACF308955E9888B95F9A00005F9882E02A
:1001100090E00E946F00089581E00E94820008959F
:10012000813120F481580E948200089581550E94F7
:100130008200089584E690E00E946F0088E30E94A8
:10014000820086E00E9482008FE00E94820081E0AF
:100150000E9482008AE090E00E946F0008955E9AFB
:1001600088B95F9A00005F9881E090E00E946F007C
:100170000895EF92FF920F931F93CF93DF93182F61
:10018000EB010E948C000EC001E0010F812F0E9444
:1001900090007E018FEFE81AF80A88810E94AF0074
:1001A000102FE70188818111EFCFDF91CF911F914F
:1001B0000F91FF90EF9008950F931F93CF93883086
:1001C000A8F48B01880F880F880F805C0E94820042
:1001D000C0E007C0F801EC0FF11D80810E94AF0064
:1001E000CF5FC830B8F380E80E948200CF911F91A2
:1001F0000F910895CF93C82F8A3019F48DE00E9493
:10020000FA009091C00095FFFCCFC093C60080E03B
:1002100090E0CF91089560933301709334018093FF
:1002200035019093360160933B0170933C018093BC
:100230003D0190933E0108958BE0809381008DE70E
:1002400090E0909389008093880082E080936F0013
:1002500010928500109284008091330190913401B6
:10026000A0913501B091360180933B0190933C0100
:10027000A0933D01B0933E018FB780688FBF089572
:1002800010928100089581E080933F0108951F92AC
:100290000F920FB60F9211240BB60F922F933F932C
:1002A0004F935F936F937F938F939F93AF93BF937E
:1002B000EF93FF9380913B0190913C01A0913D0110
:1002C000B0913E010197A109B10980933B01909340
:1002D0003C01A0933D01B0933E01892B8A2B8B2BCF
:1002E00091F40E9443018091330190913401A091D7
:1002F0003501B091360180933B0190933C01A0936E
:100300003D01B0933E01FF91EF91BF91AF919F915D
:100310008F917F916F915F914F913F912F910F90AE
:100320000BBE0F900FBE0F901F9018956DE171E0FE
:1003300080E00E94DC0065E171E081E00E94DC0069
:100340006DE071E082E00E94DC0065E071E083E036
:100350000E94DC000895CF93DF93EC018530910576
:1003600009F457C01CF4009751F08DC087309105F7
:1003700009F454C08830910509F46DC084C0009917
:1003800006C0019B04C0029B02C003997FC0009B72
:1003900006C0019904C0029B02C003997AC0009B69
:1003A00006C0019B04C0029902C0039975C0009B5E
:1003B00006C0019904C0029902C0039970C0009957
:1003C0000FC001990DC0029B0BC0039B09C060E4E4
:1003D00071E084E491E00E94EB02C7E0D0E064C0E9
:1003E000009B06C0019B04C0029B02C0039B5AC035
:1003F00000995AC0019B58C0029B56C0039954C033
:1004000060E471E084E491E00E94EB02C8E0D0E097
:100410004BC0039B49C0C6E0D0E046C0009907C06E
:10042000019908C0029908C0C0E0D0E005C0C0E052
:10043000D0E002C0C0E0D0E02097B1F580E1E0E478
:10044000F1E0DF011D928A95E9F764E471E0CF01E4
:100450000E94EB0229C0009905C0039B05C0C0E0C3
:10046000D0E002C0C0E0D0E02097F1F480E1E0E409
:10047000F1E0DF011D928A95E9F764E471E0CF01B4
:100480000E94EB0211C0C0E0D0E00EC0C3E0D0E09B
:100490000BC0C2E0D0E008C0C1E0D0E005C0C4E0BD
:1004A000D0E002C0C5E0D0E0FE013197E830F105B0
:1004B00008F063C0EA5BFF4F0C94E20280913A01BE
:1004C000833318F48F5F80933A01E0910001F0E0EC
:1004D000A0913A01B0E0AF5FBE4F8C91E15CFE4F5E
:1004E00080834BC080913A01882319F0815080931A
:1004F0003A01E0910001F0E0A0913A01B0E0AF5F75
:10050000BE4F8C91E15CFE4F808337C0809100012B
:10051000282F30E0E0913A01F0E0EF5FFE4F90814C
:10052000F901E15CFE4F9083803138F58F5F809355
:10053000000123C080E1E0E4F1E0DF011D928A9533
:10054000E9F710923A0181E08093000116C040E182
:1005500050E06CE070E080E491E00E9402030DC086
:1005600040E150E06CE070E080E491E00E94F20233
:1005700004C080E090E00E94AF00CE01DF91CF91F7
:1005800008958FE78BB980E482B9089511B88FEF91
:1005900082B984B915B887B918B88AB91BB80E944E
:1005A0001C0161E070E080E090E00E940B0181E0BE
:1005B00085B98EEF8BB980913F018823E1F31092CA
:1005C0003F01F5CFEE0FFF1F0024001C0BBE07906C
:1005D000F691E02D0994FB01DC0101900D920020C1
:1005E000E1F70895DC01CB01FC01F999FECF06C0CB
:1005F000F2BDE1BDF89A319600B40D9241505040E1
:10060000B8F70895DC01CB0103C02D910E940D03C2
:1006100041505040D0F70895262FF999FECF1FBAC8
:1006200092BD81BD20BD0FB6F894FA9AF99A0FBE1B
:0806300001960895F894FFCF34
:1006380001000102031F1F120409101F0001020418
:100648000810111F00001F1111111F0000040404DD
:1006580004150E04000000000200000000FA00006B
:0A066800000000010000007F40FFC9
:00000001FF
