:100000000C9446000C9465000C9465000C946500FB
:100010000C9465000C9465000C9465000C946500CC
:100020000C9465000C9465000C9465000C946500BC
:100030000C9465000C949B020C9465000C94650074
:100040000C9465000C9465000C9465000C9465009C
:100050000C9465000C9465000C9465000C9465008C
:100060000C9465000C9465000C9465000C9465007C
:100070000C9465000C9465000C9465000C9465006C
:100080000C9465000C9465000C94650011241FBE4F
:10009000CFEFD0E4DEBFCDBF11E0A0E0B1E0E6ECF1
:1000A000FEE000E00BBF02C007900D92AE3DB1072D
:1000B000D9F712E0AEEDB1E001C01D92A835B1074D
:1000C000E1F70E94FA020C9461070C94000040E0F2
:1000D00050E00CC000002F5F3F4F02C020E030E036
:1000E000273063E03607B4F34F5F5F4F4817590777
:1000F000ACF308955E9888B95F9A00005F9882E03B
:1001000090E00E946700089581E00E947A000895BF
:10011000813120F481580E947A00089581550E940F
:100120007A00089584E690E00E94670088E30E94C8
:100130007A0086E00E947A008FE00E947A0081E0D7
:100140000E947A008AE090E00E94670008955E9A1B
:1001500088B95F9A00005F9881E090E00E94670094
:100160000895EF92FF920F931F93CF93DF93182F71
:10017000EB010E9484000EC001E0010F812F0E945C
:1001800088007E018FEFE81AF80A88810E94A70094
:10019000102FE70188818111EFCFDF91CF911F915F
:1001A0000F91FF90EF9008950F931F93CF93883096
:1001B000A8F48B01880F880F880F805C0E947A005A
:1001C000C0E007C0F801EC0FF11D80810E94A7007C
:1001D000CF5FC830B8F380E80E947A00CF911F91BA
:1001E0000F910895CF93C82F8A3019F48DE00E94A3
:1001F000F2009091C00095FFFCCFC093C60080E054
:1002000090E0CF9108958091E6018130C1F5809111
:10021000E001883051F49091DF01973031F0109275
:10022000E0019F5F9093DF011DC08830D8F4E0911A
:10023000DF01F0E0EE0FFF1FEE0FFF1FE050FF4F5A
:10024000808185B9E091E001F0E0EE0FFF1FEE0F35
:10025000FF1FE05EFE4F80818BB98091E0018F5FD0
:100260008093E0018091E001883049F48091DF01C2
:10027000873029F41092E60181E08093DE0180E06E
:1002800090E00895CF93DF93EC018130910571F0F8
:1002900082309105B1F00097C9F4009B28C0019B02
:1002A00026C0029B24C0039B14C021C0009B14C025
:1002B000019B15C0029B16C0039B19C0C2E0D0E091
:1002C00016C08091E601813081F411C0C0E0D0E019
:1002D0000EC0C1E0D0E00BC0C2E0D0E008C0C2E078
:1002E000D0E005C0C2E0D0E002C0C0E0D0E020977E
:1002F00021F0C130D10549F00BC0609142017091ED
:10030000430181E00E94B10003C081E08093E601D7
:10031000CE01DF91CF910895CF93DF93EC0182302E
:100320009105A9F034F4009759F08130910529F036
:1003300036C085309105B4F132C0C2E0D0E040C093
:100340008091E6018130E1F5C1E0D0E039C08091D3
:10035000E4019091E501009741F4009906C0019BEA
:1003600004C0029B02C0039920C08130910541F472
:10037000009B06C0019904C0029B02C0039918C0EB
:10038000029741F4009B06C0019B04C0029902C081
:10039000039911C08091E3018A3091F40FC0C0E04D
:1003A000D0E00EC0C1E0D0E00BC0C3E0D0E008C098
:1003B000C3E0D0E005C0C3E0D0E002C0C4E0D0E0BC
:1003C000C230D10509F452C024F4C130D10551F036
:1003D00072C0C330D10509F44FC0C430D10509F44F
:1003E00060C069C01092E3010E940D0463E070E0F8
:1003F0000E949A039093E5018093E40188E1E5E986
:10040000F1E0A8E3B2E001900D928A95E1F78091C6
:10041000E2018F938091E1018F938DEA91E09F93A8
:100420008F9388E292E09F938F930E94270468E263
:1004300072E088E392E00E941C0468E372E081E0CD
:100440000E94B10081E00E948800E091E401F091F7
:10045000E501EB5BFE4F808190E00E94A7000F90CA
:100460000F900F900F900F900F9025C08091E30197
:100470008F5F8093E3011FC08091E1019091E201C1
:100480008C599F4F9093E2018093E1010E940D04EB
:1004900063E070E00E949A039093E5018093E40189
:1004A0000AC00E940D0463E070E00E949A039093DA
:1004B000E5018093E401CE01DF91CF91089560932F
:1004C000760170937701809378019093790160931E
:1004D000E7017093E8018093E9019093EA010895A0
:1004E0008BE0809381008DE790E09093890080936A
:1004F000880082E080936F00109285001092840043
:100500008091760190917701A0917801B091790165
:100510008093E7019093E801A093E901B093EA0189
:100520008FB780688FBF089510928100089581E091
:100530008093EB0108951F920F920FB60F92112432
:100540000BB60F922F933F934F935F936F937F93CD
:100550008F939F93AF93BF93EF93FF938091E701A6
:100560009091E801A091E901B091EA010197A109F8
:10057000B1098093E7019093E801A093E901B0935A
:10058000EA01892B8A2B8B2B91F40E949702809190
:10059000760190917701A0917801B09179018093D3
:1005A000E7019093E801A093E901B093EA01FF917C
:1005B000EF91BF91AF919F918F917F916F915F91DB
:1005C0004F913F912F910F900BBE0F900FBE0F9048
:1005D0001F90189560E671E080E00E94D40068E505
:1005E00071E081E00E94D40060E571E082E00E9449
:1005F000D4000895CF93DF9300D000D000D0CDB7C2
:10060000DEB780EF81B98FE082B98FEF84B915B87A
:1006100087B918B88AB91BB80E94EA0286E0EEE7EB
:10062000F1E0DE01119601900D928A95E1F7E4E088
:10063000F2E022E030E03183208384E690E0A0E025
:10064000B0E082839383A483B583168217821086D9
:10065000118642E451E053874287E8EFF1E03183AD
:10066000208382839383A483B583168217821086A6
:1006700011862CE831E033872287ECEEF1E011821D
:10068000108282839383A483B58316821782108697
:10069000118683E091E0938782870E94700264E66E
:1006A00070E080E090E00E945F020E949200F12CD6
:1006B00037C0EF2DF0E0EE0FFF1FEC0FFD1F0181A3
:1006C0001281D80116964D915D916D917C9119978B
:1006D00012968D919D910D90BC91A02D48175907B0
:1006E0006A077B0779F4D8011A96ED91FC911B9764
:1006F0008D919C910995F8019183808316821782D0
:1007000010861186F80186819781A085B1858C5964
:100710009F4FAF4FBF4F86839783A087B187F394D6
:10072000F2E0FF1530F68091EB018823E1F310929F
:10073000EB01BDCF97FB072E16F4009407D077FD91
:1007400009D00E94AE0307FC05D03EF49095819538
:100750009F4F0895709561957F4F0895AA1BBB1B0D
:1007600051E107C0AA1FBB1FA617B70710F0A61BB1
:10077000B70B881F991F5A95A9F780959095BC01D2
:10078000CD0108958F929F92AF92BF92CF92DF9248
:10079000EF92FF92CF93DF93EC01688179818A8198
:1007A0009B81611571058105910521F464E279ED64
:1007B0008BE597E02DE133EF41E050E00E94110717
:1007C00049015A019B01AC01A7EAB1E40E94FE066F
:1007D0006B017C01ACEEB4EFA50194010E940C0703
:1007E000DC01CB018C0D9D1DAE1DBF1DB7FF03C0ED
:1007F0000197A109B04888839983AA83BB839F7717
:10080000DF91CF91FF90EF90DF90CF90BF90AF90AE
:100810009F908F9008950C94C2038AE791E00C9406
:10082000C203A0E0B0E080937A0190937B01A09393
:100830007C01B0937D010895FB01DC010D90002047
:10084000E9F7119701900D920020E1F708950F93B9
:100850001F93CF93DF93CDB7DEB72E970FB6F894E3
:10086000DEBF0FBECDBF0D891E8986E08C831A8343
:1008700009838FEF9FE79E838D83AE01475E5F4FB5
:100880006F89788DCE0101960E9457042F8138859B
:10089000F801E20FF31F10822E960FB6F894DEBF18
:1008A0000FBECDBFDF91CF911F910F9108952F9271
:1008B0003F924F925F926F927F928F929F92AF92F0
:1008C000BF92CF92DF92EF92FF920F931F93CF933D
:1008D000DF93CDB7DEB72C970FB6F894DEBF0FBE0F
:1008E000CDBF7C016B018A01FC01178216828381D6
:1008F00081FFBDC1CE0101964C01F7019381F60144
:1009000093FD859193FF81916F01882309F4ABC119
:10091000853239F493FD859193FF81916F01853282
:1009200029F4B70190E00E946806E7CF512C312CE2
:1009300020E02032A0F48B3269F030F4803259F09C
:10094000833269F420612CC08D3239F0803339F460
:10095000216026C02260246023C0286021C027FDBA
:1009600027C030ED380F3A3078F426FF06C0FAE0A1
:100970005F9E300D1124532E13C08AE0389E300D37
:100980001124332E20620CC08E3221F426FD6BC15F
:10099000206406C08C3611F4206802C0883641F409
:1009A000F60193FD859193FF81916F018111C1CF74
:1009B000982F9F7D9554933028F40C5F1F4FFFE3D1
:1009C000F9830DC0833631F0833771F0833509F038
:1009D0005BC022C0F801808189830E5F1F4F4424D1
:1009E0004394512C540115C03801F2E06F0E711C74
:1009F000F801A080B18026FF03C0652D70E002C021
:100A00006FEF7FEFC5012C870E945D062C018301EB
:100A10002C852F77222E17C03801F2E06F0E711C43
:100A2000F801A080B18026FF03C0652D70E002C0F0
:100A30006FEF7FEFC5012C870E9452062C012C8599
:100A40002068222E830123FC1BC0832D90E04816D2
:100A50005906B0F4B70180E290E00E9468063A942B
:100A6000F4CFF50127FC859127FE81915F01B70145
:100A700090E00E94680631103A94F1E04F1A510854
:100A80004114510471F7E5C0843611F0893639F507
:100A9000F80127FF07C060817181828193810C5F1B
:100AA0001F4F08C060817181882777FD8095982F3E
:100AB0000E5F1F4F2F76722E97FF09C0909580957D
:100AC000709561957F4F8F4F9F4F2068722E2AE05F
:100AD00030E0A4010E94A006A82EA81844C08537C3
:100AE00029F42F7EB22E2AE030E025C0F22FF97FC4
:100AF000BF2E8F36C1F018F4883579F0B4C0803736
:100B000019F0883721F0AFC02F2F2061B22EB4FE2C
:100B10000DC08B2D8460B82E09C024FF0AC09F2F02
:100B20009660B92E06C028E030E005C020E130E034
:100B300002C020E132E0F801B7FE07C06081718198
:100B4000828193810C5F1F4F06C06081718180E0BC
:100B500090E00E5F1F4FA4010E94A006A82EA818C7
:100B6000FB2DFF777F2E76FE0BC0372D3E7FA51421
:100B700050F474FE0AC072FC08C0372D3E7E05C0DA
:100B8000BA2C372D03C0BA2C01C0B52C34FF0DC0D0
:100B9000FE01EA0DF11D8081803311F4397E09C018
:100BA00032FF06C0B394B39404C0832F867809F053
:100BB000B39433FD13C030FF06C05A2CB31418F49D
:100BC000530C5B18B32CB31468F4B70180E290E0C7
:100BD0003C870E946806B3943C85F5CFB31410F4AB
:100BE0003B1801C0312C34FF12C0B70180E390E004
:100BF0003C870E9468063C8532FF17C031FD03C068
:100C000088E790E002C088E590E0B7010CC0832F30
:100C1000867859F031FF02C08BE201C080E237FDD7
:100C20008DE2B70190E00E946806A51438F4B70180
:100C300080E390E00E9468065A94F7CFAA94F401EA
:100C4000EA0DF11D8081B70190E00E946806A110B5
:100C5000F5CF332009F451CEB70180E290E00E9435
:100C600068063A94F6CFF7018681978102C08FEF2C
:100C70009FEF2C960FB6F894DEBF0FBECDBFDF916D
:100C8000CF911F910F91FF90EF90DF90CF90BF9089
:100C9000AF909F908F907F906F905F904F903F901C
:100CA0002F900895FC010590615070400110D8F715
:100CB000809590958E0F9F1F0895FC0161507040A4
:100CC00001900110D8F7809590958E0F9F1F089581
:100CD0000F931F93CF93DF93FB01238121FD03C06B
:100CE0008FEF9FEF28C022FF16C0468157812481D5
:100CF00035814217530744F4A081B1819D012F5FD4
:100D00003F4F318320838C93268137812F5F3F4F64
:100D10003783268310C0EB01092F182F0084F1853B
:100D2000E02D0995892BE1F68E819F8101969F83A5
:100D30008E83812F902FDF91CF911F910F91089576
:100D4000FA01AA27283051F1203181F1E8946F93FC
:100D50006E7F6E5F7F4F8F4F9F4FAF4FB1E03ED0A2
:100D6000B4E03CD0670F781F891F9A1FA11D680F40
:100D7000791F8A1F911DA11D6A0F711D811D911D73
:100D8000A11D20D009F468943F912AE0269F1124E8
:100D90003019305D3193DEF6CF010895462F47704C
:100DA000405D4193B3E00FD0C9F7F6CF462F4F70A7
:100DB000405D4A3318F0495D31FD4052419302D005
:100DC000A9F7EACFB4E0A6959795879577956795AB
:100DD000BA95C9F700976105710508959B01AC01AB
:100DE0000A2E06945795479537952795BA95C9F7D2
:100DF000620F731F841F951FA01D08950E94300766
:100E0000A59F900DB49F900DA49F800D911D11245E
:100E10000895B7FF0C94FE060E94FE06821B930BFA
:100E20000895052E97FB1EF400940E94280757FD95
:100E300007D00E943F0707FC03D04EF40C9428070C
:100E400050954095309521953F4F4F4F5F4F0895F6
:100E500090958095709561957F4F8F4F9F4F089526
:100E6000A29FB001B39FC001A39F700D811D1124EB
:100E7000911DB29F700D811D1124911D0895A1E255
:100E80001A2EAA1BBB1BFD010DC0AA1FBB1FEE1F04
:100E9000FF1FA217B307E407F50720F0A21BB30B4F
:100EA000E40BF50B661F771F881F991F1A9469F7CB
:100EB00060957095809590959B01AC01BD01CF0127
:060EC0000895F894FFCF35
:100EC6000100000003000000070000000F00000002
:100ED6001F0000003F0000007F000000FF00000030
:100EE6007F0000003F0000001F0000000F00000010
:100EF60007000000030000000100000000000000E1
:100F0600B101BE01010001021F1F120409101F00DA
:100F16000102040810111F00001F1111111F00000B
:100F260004040404150E0400000000020000000082
:100F3600F2000000000001000000010000000402B1
:100F4600F801EC0164000000640000006400000089
:100F560064000000022020202020202020202020C5
:100F6600202020202053434F52453A200025687503
:100F76000047616D65207374617274656400546F17
:100F860020506C6179202D20636C69636B20746836
:0E0F960065206C65667420627574746F6E0061
:00000001FF
