:100000000C944E000C946D000C946D000C946D00DB
:100010000C946D000C946D000C946D000C946D00AC
:100020000C946D000C946D000C946D000C946D009C
:100030000C946D000C945A020C946D000C946D009D
:100040000C946D000C946D000C946D000C946D007C
:100050000C946D000C946D000C946D000C946D006C
:100060000C946D000C946D000C946D000C946D005C
:100070000C946D000C946D000C946D000C946D004C
:100080000C946D000C946D000C946D00BB01CF01BD
:10009000E301F7011A0204020D02160211241FBE29
:1000A000CFEFD0E4DEBFCDBF11E0A0E0B1E0E2E1F0
:1000B000F7E000E00BBF02C007900D92A833B10734
:1000C000D9F711E0A8E3B1E001C01D92A634B10751
:1000D000E1F70E94BE020C9487030C94000040E0FC
:1000E00050E00CC000002F5F3F4F02C020E030E026
:1000F000273063E03607B4F34F5F5F4F4817590767
:10010000ACF308955E9888B95F9A00005F9882E02A
:1001100090E00E946F00089581E00E94820008959F
:10012000813120F481580E948200089581550E94F7
:100130008200089584E690E00E946F0088E30E94A8
:10014000820086E00E9482008FE00E94820081E0AF
:100150000E9482008AE090E00E946F0008955E9AFB
:1001600088B95F9A00005F9881E090E00E946F007C
:100170000895EF92FF920F931F93CF93DF93182F61
:10018000EB010E948C000EC001E0010F812F0E9444
:1001900090007E018FEFE81AF80A88810E94AF0074
:1001A000102FE70188818111EFCFDF91CF911F914F
:1001B0000F91FF90EF9008950F931F93CF93883086
:1001C00090F48B01880F880F880F805C0E9482005A
:1001D000C0E007C0F801EC0FF11D80810E94AF0064
:1001E000CF5FC830B8F3CF911F910F910895CF938F
:1001F000C82F8A3019F48DE00E94F7009091C0005A
:1002000095FFFCCFC093C60080E090E0CF910895A9
:10021000CF93DF93EC018530910509F457C01CF4AE
:10022000009751F08DC08730910509F454C0883093
:10023000910509F46DC084C0009906C0019B04C0FB
:10024000029B02C003997FC0009B06C0019904C0B5
:10025000029B02C003997AC0009B06C0019B04C0A8
:10026000029902C0039975C0009B06C0019904C0A1
:10027000029902C0039970C000990FC001990DC086
:10028000029B0BC0039B09C06EE371E082E491E026
:100290000E945803C7E0D0E064C0009B06C0019BE9
:1002A00004C0029B02C0039B5AC000995AC0019B24
:1002B00058C0029B56C0039954C06EE371E082E4BB
:1002C00091E00E945803C8E0D0E04BC0039B49C0B6
:1002D000C6E0D0E046C0009907C0019908C0029965
:1002E00008C0C0E0D0E005C0C0E0D0E002C0C0E07F
:1002F000D0E02097B1F580E1EEE3F1E0DF011D925F
:100300008A95E9F762E471E0CF010E94580329C0A1
:10031000009905C0039B05C0C0E0D0E002C0C0E06A
:10032000D0E02097F1F480E1EEE3F1E0DF011D92EF
:100330008A95E9F762E471E0CF010E94580311C089
:10034000C0E0D0E00EC0C3E0D0E00BC0C2E0D0E01F
:1003500008C0C1E0D0E005C0C4E0D0E002C0C5E004
:10036000D0E0FE013197E830F10508F063C0EA5BA8
:10037000FF4F0C944F0380913801833318F48F5F43
:1003800080933801E0910001F0E0A0913801B0E0E5
:10039000AF5FBE4F8C91E35CFE4F80834BC080917A
:1003A0003801882319F0815080933801E0910001D1
:1003B000F0E0A0913801B0E0AF5FBE4F8C91E35CFC
:1003C000FE4F808337C080910001282F30E0E091FC
:1003D0003801F0E0EF5FFE4F9081F901E35CFE4FE2
:1003E0009083803138F58F5F8093000123C080E1D6
:1003F000EEE3F1E0DF011D928A95E9F710923801F2
:1004000081E08093000116C040E150E06CE070E0B4
:100410008EE391E00E946F030DC040E150E06CE07C
:1004200070E08EE391E00E945F0304C080E090E002
:100430000E94AF00CE01DF91CF9108956093330108
:1004400070933401809335019093360160933901A4
:1004500070933A0180933B0190933C0108958BE0A7
:10046000809381008DE790E09093890080938800CD
:1004700082E080936F00109285001092840080913A
:10048000330190913401A0913501B09136018093F0
:10049000390190933A01A0933B01B0933C018FB78F
:1004A00080688FBF089510928100089581E0809345
:1004B0003D0108951F920F920FB60F9211240BB6B3
:1004C0000F922F933F934F935F936F937F938F93ED
:1004D0009F93AF93BF93EF93FF93809139019091D6
:1004E0003A01A0913B01B0913C010197A109B109EA
:1004F0008093390190933A01A0933B01B0933C0162
:10050000892B8A2B8B2B91F40E9456028091330108
:1005100090913401A0913501B09136018093390159
:1005200090933A01A0933B01B0933C01FF91EF916E
:10053000BF91AF919F918F917F916F915F914F91FB
:100540003F912F910F900BBE0F900FBE0F901F90F9
:1005500018956DE171E080E00E94DC0065E171E0DA
:1005600081E00E94DC006DE071E082E00E94DC002E
:1005700065E071E083E00E94DC000895CF93DF9393
:10058000CDB7DEB72E970FB6F894DEBF0FBECDBF46
:1005900011B88FEF82B987B918B88AB91BB81A8217
:1005A000198284E690E0A0E0B0E08B839C83AD8369
:1005B000BE838F839887A987BA8788E091E09C875C
:1005C0008B87CE0101969E878D870E942F0264E65D
:1005D00070E080E090E00E941E020E949A000E945B
:1005E000A9028091010180933E0110E037C0E12F04
:1005F000F0E0EE0FFF1FEC0FFD1FE584F684D7013E
:1006000016964D915D916D917C91199712968D91F1
:100610009D910D90BC91A02D481759076A077B0743
:1006200079F4D7011A96ED91FC911B978D919C91CD
:100630000995F701918380831682178210861186AF
:10064000F70186819781A085B1858C599F4FAF4F67
:10065000BF4F86839783A087B1871F5F112339F22D
:100660006EE371E081E00E94B900009B11C0019B24
:100670000FC0809100010E949000E0913801F0E0ED
:10068000EF5FFE4F8081992787FD90950E94AF0014
:1006900080913D018823E1F310923D01A6CFEE0F3A
:1006A000FF1F0024001C0BBE0790F691E02D09945B
:1006B000FB01DC0101900D920020E1F70895DC01BF
:1006C000CB01FC01F999FECF06C0F2BDE1BDF89A5D
:1006D000319600B40D9241505040B8F70895DC01B6
:1006E000CB0103C02D910E947A0341505040D0F7B6
:1006F0000895262FF999FECF1FBA92BD81BD20BD66
:100700000FB6F894FA9AF99A0FBE01960895F894E4
:02071000FFCF19
:1007120001000102031F1F120409101F000102043D
:100722000810111F00001F1111111F000004040402
:1007320004150E04000000000200000000F7000093
:080742000000000100000000AE
:00000001FF
